{
  "contractName": "Cleaning",
  "abi": [
    {
      "inputs": [
        {
          "internalType": "uint256",
          "name": "_numObjects",
          "type": "uint256"
        }
      ],
      "payable": false,
      "stateMutability": "nonpayable",
      "type": "constructor"
    },
    {
      "constant": true,
      "inputs": [
        {
          "internalType": "uint256",
          "name": "",
          "type": "uint256"
        }
      ],
      "name": "cleaned",
      "outputs": [
        {
          "internalType": "address",
          "name": "",
          "type": "address"
        }
      ],
      "payable": false,
      "stateMutability": "view",
      "type": "function"
    },
    {
      "constant": true,
      "inputs": [],
      "name": "numObjects",
      "outputs": [
        {
          "internalType": "uint256",
          "name": "",
          "type": "uint256"
        }
      ],
      "payable": false,
      "stateMutability": "view",
      "type": "function"
    },
    {
      "constant": true,
      "inputs": [
        {
          "internalType": "uint256",
          "name": "",
          "type": "uint256"
        }
      ],
      "name": "timestamp",
      "outputs": [
        {
          "internalType": "uint256",
          "name": "",
          "type": "uint256"
        }
      ],
      "payable": false,
      "stateMutability": "view",
      "type": "function"
    },
    {
      "constant": true,
      "inputs": [
        {
          "internalType": "uint256",
          "name": "",
          "type": "uint256"
        }
      ],
      "name": "used",
      "outputs": [
        {
          "internalType": "address",
          "name": "",
          "type": "address"
        }
      ],
      "payable": false,
      "stateMutability": "view",
      "type": "function"
    },
    {
      "constant": false,
      "inputs": [
        {
          "internalType": "uint256",
          "name": "objectId",
          "type": "uint256"
        }
      ],
      "name": "cleanObject",
      "outputs": [
        {
          "internalType": "bool",
          "name": "",
          "type": "bool"
        }
      ],
      "payable": false,
      "stateMutability": "nonpayable",
      "type": "function"
    },
    {
      "constant": false,
      "inputs": [
        {
          "internalType": "uint256",
          "name": "objectId",
          "type": "uint256"
        }
      ],
      "name": "useObject",
      "outputs": [
        {
          "internalType": "bool",
          "name": "",
          "type": "bool"
        }
      ],
      "payable": false,
      "stateMutability": "nonpayable",
      "type": "function"
    },
    {
      "constant": true,
      "inputs": [],
      "name": "getObjectsCleaned",
      "outputs": [
        {
          "internalType": "address[]",
          "name": "",
          "type": "address[]"
        }
      ],
      "payable": false,
      "stateMutability": "view",
      "type": "function"
    },
    {
      "constant": true,
      "inputs": [],
      "name": "getObjectsUsed",
      "outputs": [
        {
          "internalType": "address[]",
          "name": "",
          "type": "address[]"
        }
      ],
      "payable": false,
      "stateMutability": "view",
      "type": "function"
    }
  ],
  "bytecode": "0x608060405234801561001057600080fd5b5060405162000b9338038062000b938339818101604052602081101561003557600080fd5b81019080805190602001909291905050508060008190555060005460405190808252806020026020018201604052801561007e5781602001602082028038833980820191505090505b506001908051906020019061009492919061012b565b506000546040519080825280602002602001820160405280156100c65781602001602082028038833980820191505090505b50600290805190602001906100dc92919061012b565b5060005460405190808252806020026020018201604052801561010e5781602001602082028038833980820191505090505b50600390805190602001906101249291906101b5565b505061026a565b8280548282559060005260206000209081019282156101a4579160200282015b828111156101a35782518260006101000a81548173ffffffffffffffffffffffffffffffffffffffff021916908373ffffffffffffffffffffffffffffffffffffffff1602179055509160200191906001019061014b565b5b5090506101b19190610202565b5090565b8280548282559060005260206000209081019282156101f1579160200282015b828111156101f05782518255916020019190600101906101d5565b5b5090506101fe9190610245565b5090565b61024291905b8082111561023e57600081816101000a81549073ffffffffffffffffffffffffffffffffffffffff021916905550600101610208565b5090565b90565b61026791905b8082111561026357600081600090555060010161024b565b5090565b90565b610919806200027a6000396000f3fe608060405234801561001057600080fd5b50600436106100885760003560e01c80636ae139041161005b5780636ae13904146101ba578063715d6e0114610200578063af79540c14610246578063e0433f23146102a557610088565b8063020fe6e51461008d57806304c38115146100fb5780631386dc12146101195780631f51f4e91461015b575b600080fd5b6100b9600480360360208110156100a357600080fd5b8101908080359060200190929190505050610313565b604051808273ffffffffffffffffffffffffffffffffffffffff1673ffffffffffffffffffffffffffffffffffffffff16815260200191505060405180910390f35b61010361034f565b6040518082815260200191505060405180910390f35b6101456004803603602081101561012f57600080fd5b8101908080359060200190929190505050610355565b6040518082815260200191505060405180910390f35b610163610376565b6040518080602001828103825283818151815260200191508051906020019060200280838360005b838110156101a657808201518184015260208101905061018b565b505050509050019250505060405180910390f35b6101e6600480360360208110156101d057600080fd5b8101908080359060200190929190505050610404565b604051808215151515815260200191505060405180910390f35b61022c6004803603602081101561021657600080fd5b810190808035906020019092919050505061060f565b604051808215151515815260200191505060405180910390f35b61024e61081a565b6040518080602001828103825283818151815260200191508051906020019060200280838360005b83811015610291578082015181840152602081019050610276565b505050509050019250505060405180910390f35b6102d1600480360360208110156102bb57600080fd5b81019080803590602001909291905050506108a8565b604051808273ffffffffffffffffffffffffffffffffffffffff1673ffffffffffffffffffffffffffffffffffffffff16815260200191505060405180910390f35b6002818154811061032057fe5b906000526020600020016000915054906101000a900473ffffffffffffffffffffffffffffffffffffffff1681565b60005481565b6003818154811061036257fe5b906000526020600020016000915090505481565b606060028054806020026020016040519081016040528092919081815260200182805480156103fa57602002820191906000526020600020905b8160009054906101000a900473ffffffffffffffffffffffffffffffffffffffff1673ffffffffffffffffffffffffffffffffffffffff16815260200190600101908083116103b0575b5050505050905090565b60006002805490508210610480576040517f08c379a00000000000000000000000000000000000000000000000000000000081526004018080602001828103825260108152602001807f496e76616c6964206f626a65637449640000000000000000000000000000000081525060200191505060405180910390fd5b600073ffffffffffffffffffffffffffffffffffffffff16600283815481106104a557fe5b9060005260206000200160009054906101000a900473ffffffffffffffffffffffffffffffffffffffff1673ffffffffffffffffffffffffffffffffffffffff1614610559576040517f08c379a00000000000000000000000000000000000000000000000000000000081526004018080602001828103825260138152602001807f4f626a65637420616c726561647920757365640000000000000000000000000081525060200191505060405180910390fd5b336002838154811061056757fe5b9060005260206000200160006101000a81548173ffffffffffffffffffffffffffffffffffffffff021916908373ffffffffffffffffffffffffffffffffffffffff1602179055506000600183815481106105be57fe5b9060005260206000200160006101000a81548173ffffffffffffffffffffffffffffffffffffffff021916908373ffffffffffffffffffffffffffffffffffffffff16021790555060019050919050565b6000600180549050821061068b576040517f08c379a00000000000000000000000000000000000000000000000000000000081526004018080602001828103825260108152602001807f496e76616c6964206f626a65637449640000000000000000000000000000000081525060200191505060405180910390fd5b600073ffffffffffffffffffffffffffffffffffffffff16600183815481106106b057fe5b9060005260206000200160009054906101000a900473ffffffffffffffffffffffffffffffffffffffff1673ffffffffffffffffffffffffffffffffffffffff1614610764576040517f08c379a00000000000000000000000000000000000000000000000000000000081526004018080602001828103825260168152602001807f4f626a65637420616c726561647920636c65616e65640000000000000000000081525060200191505060405180910390fd5b336001838154811061077257fe5b9060005260206000200160006101000a81548173ffffffffffffffffffffffffffffffffffffffff021916908373ffffffffffffffffffffffffffffffffffffffff1602179055506000600283815481106107c957fe5b9060005260206000200160006101000a81548173ffffffffffffffffffffffffffffffffffffffff021916908373ffffffffffffffffffffffffffffffffffffffff16021790555060019050919050565b6060600180548060200260200160405190810160405280929190818152602001828054801561089e57602002820191906000526020600020905b8160009054906101000a900473ffffffffffffffffffffffffffffffffffffffff1673ffffffffffffffffffffffffffffffffffffffff1681526020019060010190808311610854575b5050505050905090565b600181815481106108b557fe5b906000526020600020016000915054906101000a900473ffffffffffffffffffffffffffffffffffffffff168156fea265627a7a723158208290e8518dfc707e25871ae0b49a2ab7d0eda7e758d8529f53bd26e4b1080af964736f6c63430005100032",
  "source": "pragma solidity ^0.5.0;\n\ncontract Cleaning {\n    // struct ObjectStatus {\n    //     address account;\n    //     bool isCleaned;\n    // }\n\n    // ObjectStatus[] public objects;\n    uint256 public numObjects;\n    address[] public cleaned;\n    address[] public used;\n    uint256[] public timestamp;\n\n    constructor(uint256 _numObjects) public {\n        numObjects = _numObjects;\n\n        cleaned = new address[](numObjects);\n        used = new address[](numObjects);\n        timestamp = new uint256[](numObjects);\n    }\n\n    function cleanObject(uint objectId) public returns (bool) {\n        require(objectId < cleaned.length, \"Invalid objectId\");\n        require(cleaned[objectId] == address(0), \"Object already cleaned\");\n        // require(objectId < objects.length, \"Invalid objectId\");\n        // require(objects[objectId].account == address(0), \"Object already cleaned\");\n\n        // objects[objectId].account = msg.sender;\n        // objects[objectId].isCleaned = true;\n        cleaned[objectId] = msg.sender;\n        used[objectId] = address(0);\n\n        return true;\n    }\n\n    function useObject(uint objectId) public returns (bool) {\n        require(objectId < used.length, \"Invalid objectId\");\n        require(used[objectId] == address(0), \"Object already used\");\n        // require(objectId < objects.length, \"Invalid objectId\");\n        // require(objects[objectId].account == address(0), \"Object already cleaned\");\n        \n        // objects[objectId].account = msg.sender;\n        // objects[objectId].isCleaned = false;\n        used[objectId] = msg.sender;\n        cleaned[objectId] = address(0);\n\n        return true;\n    }\n\n    function getObjectsCleaned() public view returns (address[] memory) {\n        // address[] memory cleaned = new address[](objects.length);\n\n        // for (uint i = 0; i < objects.length; i++) {\n        //     if (objects[i].isCleaned) {\n        //         cleaned[i] = objects[i].account;\n        //     }else{\n        //         cleaned[i] = address(0);\n        //     }\n        // }\n\n        return cleaned;\n    }\n\n    function getObjectsUsed() public view returns (address[] memory) {\n        // address[] memory used = new address[](objects.length);\n\n        // for (uint i = 0; i < objects.length; i++) {\n        //     if (!objects[i].isCleaned) {\n        //         used[i] = objects[i].account;\n        //     }else{\n        //         used[i] = address(0);\n        //     }\n        // }\n\n        return used;\n    }\n}",
  "sourcePath": "/Users/filippobrajucha/Developer/medical-chain/contracts/Cleaning.sol",
  "compiler": {
    "name": "solc",
    "version": "0.5.16+commit.9c3226ce.Emscripten.clang"
  },
  "schemaVersion": "3.4.16",
  "updatedAt": "2025-08-28T08:29:06.531Z",
  "networkType": "ethereum",
  "devdoc": {
    "methods": {}
  },
  "userdoc": {
    "methods": {}
  }
}